{
	"contracts/kosebinu.sol": {
		"Assignment": {
			"abi": [
				{
					"inputs": [
						{
							"internalType": "uint256",
							"name": "number",
							"type": "uint256"
						}
					],
					"name": "Even",
					"outputs": [
						{
							"internalType": "bool",
							"name": "",
							"type": "bool"
						}
					],
					"stateMutability": "pure",
					"type": "function"
				},
				{
					"inputs": [
						{
							"internalType": "uint256",
							"name": "number",
							"type": "uint256"
						},
						{
							"internalType": "uint8",
							"name": "numberOfBits",
							"type": "uint8"
						}
					],
					"name": "mostSignificantBits",
					"outputs": [
						{
							"internalType": "uint256",
							"name": "",
							"type": "uint256"
						}
					],
					"stateMutability": "pure",
					"type": "function"
				},
				{
					"inputs": [
						{
							"internalType": "uint256",
							"name": "number",
							"type": "uint256"
						}
					],
					"name": "odd",
					"outputs": [
						{
							"internalType": "bool",
							"name": "",
							"type": "bool"
						}
					],
					"stateMutability": "pure",
					"type": "function"
				}
			],
			"devdoc": {
				"kind": "dev",
				"methods": {},
				"version": 1
			},
			"evm": {
				"assembly": "    /* \"contracts/kosebinu.sol\":229:1458  contract Assignment{\r... */\n  mstore(0x40, 0x80)\n  callvalue\n  dup1\n  iszero\n  tag_1\n  jumpi\n  0x00\n  dup1\n  revert\ntag_1:\n  pop\n  dataSize(sub_0)\n  dup1\n  dataOffset(sub_0)\n  0x00\n  codecopy\n  0x00\n  return\nstop\n\nsub_0: assembly {\n        /* \"contracts/kosebinu.sol\":229:1458  contract Assignment{\r... */\n      mstore(0x40, 0x80)\n      callvalue\n      dup1\n      iszero\n      tag_1\n      jumpi\n      0x00\n      dup1\n      revert\n    tag_1:\n      pop\n      jumpi(tag_2, lt(calldatasize, 0x04))\n      shr(0xe0, calldataload(0x00))\n      dup1\n      0x0602c36a\n      eq\n      tag_3\n      jumpi\n      dup1\n      0x10bbd0b5\n      eq\n      tag_4\n      jumpi\n      dup1\n      0x14cac586\n      eq\n      tag_5\n      jumpi\n    tag_2:\n      0x00\n      dup1\n      revert\n        /* \"contracts/kosebinu.sol\":254:351  function odd(uint256 number) public pure returns (bool) {\r... */\n    tag_3:\n      tag_6\n      0x04\n      dup1\n      calldatasize\n      sub\n      dup2\n      add\n      swap1\n      tag_7\n      swap2\n      swap1\n      tag_8\n      jump\t// in\n    tag_7:\n      tag_9\n      jump\t// in\n    tag_6:\n      mload(0x40)\n      tag_10\n      swap2\n      swap1\n      tag_11\n      jump\t// in\n    tag_10:\n      mload(0x40)\n      dup1\n      swap2\n      sub\n      swap1\n      return\n        /* \"contracts/kosebinu.sol\":405:503  function Even(uint256 number) public pure returns (bool) {\r... */\n    tag_4:\n      tag_12\n      0x04\n      dup1\n      calldatasize\n      sub\n      dup2\n      add\n      swap1\n      tag_13\n      swap2\n      swap1\n      tag_8\n      jump\t// in\n    tag_13:\n      tag_14\n      jump\t// in\n    tag_12:\n      mload(0x40)\n      tag_15\n      swap2\n      swap1\n      tag_11\n      jump\t// in\n    tag_15:\n      mload(0x40)\n      dup1\n      swap2\n      sub\n      swap1\n      return\n        /* \"contracts/kosebinu.sol\":645:1455  function mostSignificantBits(uint256 number, uint8 numberOfBits) public pure returns (uint256) {\r... */\n    tag_5:\n      tag_16\n      0x04\n      dup1\n      calldatasize\n      sub\n      dup2\n      add\n      swap1\n      tag_17\n      swap2\n      swap1\n      tag_18\n      jump\t// in\n    tag_17:\n      tag_19\n      jump\t// in\n    tag_16:\n      mload(0x40)\n      tag_20\n      swap2\n      swap1\n      tag_21\n      jump\t// in\n    tag_20:\n      mload(0x40)\n      dup1\n      swap2\n      sub\n      swap1\n      return\n        /* \"contracts/kosebinu.sol\":254:351  function odd(uint256 number) public pure returns (bool) {\r... */\n    tag_9:\n        /* \"contracts/kosebinu.sol\":304:308  bool */\n      0x00\n        /* \"contracts/kosebinu.sol\":342:343  0 */\n      dup1\n        /* \"contracts/kosebinu.sol\":337:338  2 */\n      0x02\n        /* \"contracts/kosebinu.sol\":328:334  number */\n      dup4\n        /* \"contracts/kosebinu.sol\":328:338  number % 2 */\n      tag_23\n      swap2\n      swap1\n      tag_24\n      jump\t// in\n    tag_23:\n        /* \"contracts/kosebinu.sol\":328:343  number % 2 != 0 */\n      eq\n      iszero\n        /* \"contracts/kosebinu.sol\":321:343  return number % 2 != 0 */\n      swap1\n      pop\n        /* \"contracts/kosebinu.sol\":254:351  function odd(uint256 number) public pure returns (bool) {\r... */\n      swap2\n      swap1\n      pop\n      jump\t// out\n        /* \"contracts/kosebinu.sol\":405:503  function Even(uint256 number) public pure returns (bool) {\r... */\n    tag_14:\n        /* \"contracts/kosebinu.sol\":456:460  bool */\n      0x00\n        /* \"contracts/kosebinu.sol\":494:495  0 */\n      dup1\n        /* \"contracts/kosebinu.sol\":489:490  2 */\n      0x02\n        /* \"contracts/kosebinu.sol\":480:486  number */\n      dup4\n        /* \"contracts/kosebinu.sol\":480:490  number % 2 */\n      tag_26\n      swap2\n      swap1\n      tag_24\n      jump\t// in\n    tag_26:\n        /* \"contracts/kosebinu.sol\":480:495  number % 2 == 0 */\n      eq\n        /* \"contracts/kosebinu.sol\":473:495  return number % 2 == 0 */\n      swap1\n      pop\n        /* \"contracts/kosebinu.sol\":405:503  function Even(uint256 number) public pure returns (bool) {\r... */\n      swap2\n      swap1\n      pop\n      jump\t// out\n        /* \"contracts/kosebinu.sol\":645:1455  function mostSignificantBits(uint256 number, uint8 numberOfBits) public pure returns (uint256) {\r... */\n    tag_19:\n        /* \"contracts/kosebinu.sol\":731:738  uint256 */\n      0x00\n        /* \"contracts/kosebinu.sol\":1102:1103  0 */\n      dup1\n        /* \"contracts/kosebinu.sol\":1087:1099  numberOfBits */\n      dup3\n        /* \"contracts/kosebinu.sol\":1087:1103  numberOfBits > 0 */\n      0xff\n      and\n      gt\n        /* \"contracts/kosebinu.sol\":1087:1126  numberOfBits > 0 && numberOfBits <= 256 */\n      dup1\n      iszero\n      tag_28\n      jumpi\n      pop\n        /* \"contracts/kosebinu.sol\":1123:1126  256 */\n      0x0100\n        /* \"contracts/kosebinu.sol\":1107:1119  numberOfBits */\n      dup3\n        /* \"contracts/kosebinu.sol\":1107:1126  numberOfBits <= 256 */\n      0xff\n      and\n      gt\n      iszero\n        /* \"contracts/kosebinu.sol\":1087:1126  numberOfBits > 0 && numberOfBits <= 256 */\n    tag_28:\n        /* \"contracts/kosebinu.sol\":1079:1153  require(numberOfBits > 0 && numberOfBits <= 256, \"Invalid number of bits\") */\n      tag_29\n      jumpi\n      mload(0x40)\n      0x08c379a000000000000000000000000000000000000000000000000000000000\n      dup2\n      mstore\n      0x04\n      add\n      tag_30\n      swap1\n      tag_31\n      jump\t// in\n    tag_30:\n      mload(0x40)\n      dup1\n      swap2\n      sub\n      swap1\n      revert\n    tag_29:\n        /* \"contracts/kosebinu.sol\":1295:1307  uint256 mask */\n      0x00\n        /* \"contracts/kosebinu.sol\":1332:1333  1 */\n      0x01\n        /* \"contracts/kosebinu.sol\":1316:1328  numberOfBits */\n      dup4\n        /* \"contracts/kosebinu.sol\":1311:1328  1 << numberOfBits */\n      0xff\n      and\n        /* \"contracts/kosebinu.sol\":1311:1312  1 */\n      0x01\n        /* \"contracts/kosebinu.sol\":1311:1328  1 << numberOfBits */\n      swap1\n      shl\n        /* \"contracts/kosebinu.sol\":1310:1333  (1 << numberOfBits) - 1 */\n      tag_32\n      swap2\n      swap1\n      tag_33\n      jump\t// in\n    tag_32:\n        /* \"contracts/kosebinu.sol\":1295:1333  uint256 mask = (1 << numberOfBits) - 1 */\n      swap1\n      pop\n        /* \"contracts/kosebinu.sol\":1443:1447  mask */\n      dup1\n        /* \"contracts/kosebinu.sol\":1427:1439  numberOfBits */\n      dup4\n        /* \"contracts/kosebinu.sol\":1421:1439  256 - numberOfBits */\n      0xff\n      and\n        /* \"contracts/kosebinu.sol\":1421:1424  256 */\n      0x0100\n        /* \"contracts/kosebinu.sol\":1421:1439  256 - numberOfBits */\n      tag_34\n      swap2\n      swap1\n      tag_35\n      jump\t// in\n    tag_34:\n        /* \"contracts/kosebinu.sol\":1410:1440  number >> (256 - numberOfBits) */\n      0xffff\n      and\n        /* \"contracts/kosebinu.sol\":1410:1416  number */\n      dup6\n        /* \"contracts/kosebinu.sol\":1410:1440  number >> (256 - numberOfBits) */\n      swap1\n      shr\n        /* \"contracts/kosebinu.sol\":1410:1447  number >> (256 - numberOfBits) & mask */\n      and\n        /* \"contracts/kosebinu.sol\":1403:1447  return number >> (256 - numberOfBits) & mask */\n      swap2\n      pop\n      pop\n        /* \"contracts/kosebinu.sol\":645:1455  function mostSignificantBits(uint256 number, uint8 numberOfBits) public pure returns (uint256) {\r... */\n      swap3\n      swap2\n      pop\n      pop\n      jump\t// out\n        /* \"#utility.yul\":7:146   */\n    tag_37:\n      0x00\n        /* \"#utility.yul\":91:97   */\n      dup2\n        /* \"#utility.yul\":78:98   */\n      calldataload\n        /* \"#utility.yul\":69:98   */\n      swap1\n      pop\n        /* \"#utility.yul\":107:140   */\n      tag_39\n        /* \"#utility.yul\":134:139   */\n      dup2\n        /* \"#utility.yul\":107:140   */\n      tag_40\n      jump\t// in\n    tag_39:\n        /* \"#utility.yul\":59:146   */\n      swap3\n      swap2\n      pop\n      pop\n      jump\t// out\n        /* \"#utility.yul\":152:287   */\n    tag_41:\n      0x00\n        /* \"#utility.yul\":234:240   */\n      dup2\n        /* \"#utility.yul\":221:241   */\n      calldataload\n        /* \"#utility.yul\":212:241   */\n      swap1\n      pop\n        /* \"#utility.yul\":250:281   */\n      tag_43\n        /* \"#utility.yul\":275:280   */\n      dup2\n        /* \"#utility.yul\":250:281   */\n      tag_44\n      jump\t// in\n    tag_43:\n        /* \"#utility.yul\":202:287   */\n      swap3\n      swap2\n      pop\n      pop\n      jump\t// out\n        /* \"#utility.yul\":293:555   */\n    tag_8:\n      0x00\n        /* \"#utility.yul\":401:403   */\n      0x20\n        /* \"#utility.yul\":389:398   */\n      dup3\n        /* \"#utility.yul\":380:387   */\n      dup5\n        /* \"#utility.yul\":376:399   */\n      sub\n        /* \"#utility.yul\":372:404   */\n      slt\n        /* \"#utility.yul\":369:371   */\n      iszero\n      tag_46\n      jumpi\n        /* \"#utility.yul\":417:418   */\n      0x00\n        /* \"#utility.yul\":414:415   */\n      dup1\n        /* \"#utility.yul\":407:419   */\n      revert\n        /* \"#utility.yul\":369:371   */\n    tag_46:\n        /* \"#utility.yul\":460:461   */\n      0x00\n        /* \"#utility.yul\":485:538   */\n      tag_47\n        /* \"#utility.yul\":530:537   */\n      dup5\n        /* \"#utility.yul\":521:527   */\n      dup3\n        /* \"#utility.yul\":510:519   */\n      dup6\n        /* \"#utility.yul\":506:528   */\n      add\n        /* \"#utility.yul\":485:538   */\n      tag_37\n      jump\t// in\n    tag_47:\n        /* \"#utility.yul\":475:538   */\n      swap2\n      pop\n        /* \"#utility.yul\":431:548   */\n      pop\n        /* \"#utility.yul\":359:555   */\n      swap3\n      swap2\n      pop\n      pop\n      jump\t// out\n        /* \"#utility.yul\":561:964   */\n    tag_18:\n      0x00\n      dup1\n        /* \"#utility.yul\":684:686   */\n      0x40\n        /* \"#utility.yul\":672:681   */\n      dup4\n        /* \"#utility.yul\":663:670   */\n      dup6\n        /* \"#utility.yul\":659:682   */\n      sub\n        /* \"#utility.yul\":655:687   */\n      slt\n        /* \"#utility.yul\":652:654   */\n      iszero\n      tag_49\n      jumpi\n        /* \"#utility.yul\":700:701   */\n      0x00\n        /* \"#utility.yul\":697:698   */\n      dup1\n        /* \"#utility.yul\":690:702   */\n      revert\n        /* \"#utility.yul\":652:654   */\n    tag_49:\n        /* \"#utility.yul\":743:744   */\n      0x00\n        /* \"#utility.yul\":768:821   */\n      tag_50\n        /* \"#utility.yul\":813:820   */\n      dup6\n        /* \"#utility.yul\":804:810   */\n      dup3\n        /* \"#utility.yul\":793:802   */\n      dup7\n        /* \"#utility.yul\":789:811   */\n      add\n        /* \"#utility.yul\":768:821   */\n      tag_37\n      jump\t// in\n    tag_50:\n        /* \"#utility.yul\":758:821   */\n      swap3\n      pop\n        /* \"#utility.yul\":714:831   */\n      pop\n        /* \"#utility.yul\":870:872   */\n      0x20\n        /* \"#utility.yul\":896:947   */\n      tag_51\n        /* \"#utility.yul\":939:946   */\n      dup6\n        /* \"#utility.yul\":930:936   */\n      dup3\n        /* \"#utility.yul\":919:928   */\n      dup7\n        /* \"#utility.yul\":915:937   */\n      add\n        /* \"#utility.yul\":896:947   */\n      tag_41\n      jump\t// in\n    tag_51:\n        /* \"#utility.yul\":886:947   */\n      swap2\n      pop\n        /* \"#utility.yul\":841:957   */\n      pop\n        /* \"#utility.yul\":642:964   */\n      swap3\n      pop\n      swap3\n      swap1\n      pop\n      jump\t// out\n        /* \"#utility.yul\":970:1079   */\n    tag_52:\n        /* \"#utility.yul\":1051:1072   */\n      tag_54\n        /* \"#utility.yul\":1066:1071   */\n      dup2\n        /* \"#utility.yul\":1051:1072   */\n      tag_55\n      jump\t// in\n    tag_54:\n        /* \"#utility.yul\":1046:1049   */\n      dup3\n        /* \"#utility.yul\":1039:1073   */\n      mstore\n        /* \"#utility.yul\":1029:1079   */\n      pop\n      pop\n      jump\t// out\n        /* \"#utility.yul\":1085:1405   */\n    tag_56:\n      0x00\n        /* \"#utility.yul\":1248:1315   */\n      tag_58\n        /* \"#utility.yul\":1312:1314   */\n      0x16\n        /* \"#utility.yul\":1307:1310   */\n      dup4\n        /* \"#utility.yul\":1248:1315   */\n      tag_59\n      jump\t// in\n    tag_58:\n        /* \"#utility.yul\":1241:1315   */\n      swap2\n      pop\n        /* \"#utility.yul\":1345:1369   */\n      0x496e76616c6964206e756d626572206f66206269747300000000000000000000\n        /* \"#utility.yul\":1341:1342   */\n      0x00\n        /* \"#utility.yul\":1336:1339   */\n      dup4\n        /* \"#utility.yul\":1332:1343   */\n      add\n        /* \"#utility.yul\":1325:1370   */\n      mstore\n        /* \"#utility.yul\":1396:1398   */\n      0x20\n        /* \"#utility.yul\":1391:1394   */\n      dup3\n        /* \"#utility.yul\":1387:1399   */\n      add\n        /* \"#utility.yul\":1380:1399   */\n      swap1\n      pop\n        /* \"#utility.yul\":1231:1405   */\n      swap2\n      swap1\n      pop\n      jump\t// out\n        /* \"#utility.yul\":1411:1529   */\n    tag_60:\n        /* \"#utility.yul\":1498:1522   */\n      tag_62\n        /* \"#utility.yul\":1516:1521   */\n      dup2\n        /* \"#utility.yul\":1498:1522   */\n      tag_63\n      jump\t// in\n    tag_62:\n        /* \"#utility.yul\":1493:1496   */\n      dup3\n        /* \"#utility.yul\":1486:1523   */\n      mstore\n        /* \"#utility.yul\":1476:1529   */\n      pop\n      pop\n      jump\t// out\n        /* \"#utility.yul\":1535:1745   */\n    tag_11:\n      0x00\n        /* \"#utility.yul\":1660:1662   */\n      0x20\n        /* \"#utility.yul\":1649:1658   */\n      dup3\n        /* \"#utility.yul\":1645:1663   */\n      add\n        /* \"#utility.yul\":1637:1663   */\n      swap1\n      pop\n        /* \"#utility.yul\":1673:1738   */\n      tag_65\n        /* \"#utility.yul\":1735:1736   */\n      0x00\n        /* \"#utility.yul\":1724:1733   */\n      dup4\n        /* \"#utility.yul\":1720:1737   */\n      add\n        /* \"#utility.yul\":1711:1717   */\n      dup5\n        /* \"#utility.yul\":1673:1738   */\n      tag_52\n      jump\t// in\n    tag_65:\n        /* \"#utility.yul\":1627:1745   */\n      swap3\n      swap2\n      pop\n      pop\n      jump\t// out\n        /* \"#utility.yul\":1751:2170   */\n    tag_31:\n      0x00\n        /* \"#utility.yul\":1955:1957   */\n      0x20\n        /* \"#utility.yul\":1944:1953   */\n      dup3\n        /* \"#utility.yul\":1940:1958   */\n      add\n        /* \"#utility.yul\":1932:1958   */\n      swap1\n      pop\n        /* \"#utility.yul\":2004:2013   */\n      dup2\n        /* \"#utility.yul\":1998:2002   */\n      dup2\n        /* \"#utility.yul\":1994:2014   */\n      sub\n        /* \"#utility.yul\":1990:1991   */\n      0x00\n        /* \"#utility.yul\":1979:1988   */\n      dup4\n        /* \"#utility.yul\":1975:1992   */\n      add\n        /* \"#utility.yul\":1968:2015   */\n      mstore\n        /* \"#utility.yul\":2032:2163   */\n      tag_67\n        /* \"#utility.yul\":2158:2162   */\n      dup2\n        /* \"#utility.yul\":2032:2163   */\n      tag_56\n      jump\t// in\n    tag_67:\n        /* \"#utility.yul\":2024:2163   */\n      swap1\n      pop\n        /* \"#utility.yul\":1922:2170   */\n      swap2\n      swap1\n      pop\n      jump\t// out\n        /* \"#utility.yul\":2176:2398   */\n    tag_21:\n      0x00\n        /* \"#utility.yul\":2307:2309   */\n      0x20\n        /* \"#utility.yul\":2296:2305   */\n      dup3\n        /* \"#utility.yul\":2292:2310   */\n      add\n        /* \"#utility.yul\":2284:2310   */\n      swap1\n      pop\n        /* \"#utility.yul\":2320:2391   */\n      tag_69\n        /* \"#utility.yul\":2388:2389   */\n      0x00\n        /* \"#utility.yul\":2377:2386   */\n      dup4\n        /* \"#utility.yul\":2373:2390   */\n      add\n        /* \"#utility.yul\":2364:2370   */\n      dup5\n        /* \"#utility.yul\":2320:2391   */\n      tag_60\n      jump\t// in\n    tag_69:\n        /* \"#utility.yul\":2274:2398   */\n      swap3\n      swap2\n      pop\n      pop\n      jump\t// out\n        /* \"#utility.yul\":2404:2573   */\n    tag_59:\n      0x00\n        /* \"#utility.yul\":2522:2528   */\n      dup3\n        /* \"#utility.yul\":2517:2520   */\n      dup3\n        /* \"#utility.yul\":2510:2529   */\n      mstore\n        /* \"#utility.yul\":2562:2566   */\n      0x20\n        /* \"#utility.yul\":2557:2560   */\n      dup3\n        /* \"#utility.yul\":2553:2567   */\n      add\n        /* \"#utility.yul\":2538:2567   */\n      swap1\n      pop\n        /* \"#utility.yul\":2500:2573   */\n      swap3\n      swap2\n      pop\n      pop\n      jump\t// out\n        /* \"#utility.yul\":2579:2767   */\n    tag_35:\n      0x00\n        /* \"#utility.yul\":2638:2657   */\n      tag_72\n        /* \"#utility.yul\":2655:2656   */\n      dup3\n        /* \"#utility.yul\":2638:2657   */\n      tag_73\n      jump\t// in\n    tag_72:\n        /* \"#utility.yul\":2633:2657   */\n      swap2\n      pop\n        /* \"#utility.yul\":2671:2690   */\n      tag_74\n        /* \"#utility.yul\":2688:2689   */\n      dup4\n        /* \"#utility.yul\":2671:2690   */\n      tag_73\n      jump\t// in\n    tag_74:\n        /* \"#utility.yul\":2666:2690   */\n      swap3\n      pop\n        /* \"#utility.yul\":2709:2710   */\n      dup3\n        /* \"#utility.yul\":2706:2707   */\n      dup3\n        /* \"#utility.yul\":2703:2711   */\n      lt\n        /* \"#utility.yul\":2700:2702   */\n      iszero\n      tag_75\n      jumpi\n        /* \"#utility.yul\":2714:2732   */\n      tag_76\n      tag_77\n      jump\t// in\n    tag_76:\n        /* \"#utility.yul\":2700:2702   */\n    tag_75:\n        /* \"#utility.yul\":2759:2760   */\n      dup3\n        /* \"#utility.yul\":2756:2757   */\n      dup3\n        /* \"#utility.yul\":2752:2761   */\n      sub\n        /* \"#utility.yul\":2744:2761   */\n      swap1\n      pop\n        /* \"#utility.yul\":2623:2767   */\n      swap3\n      swap2\n      pop\n      pop\n      jump\t// out\n        /* \"#utility.yul\":2773:2964   */\n    tag_33:\n      0x00\n        /* \"#utility.yul\":2833:2853   */\n      tag_79\n        /* \"#utility.yul\":2851:2852   */\n      dup3\n        /* \"#utility.yul\":2833:2853   */\n      tag_63\n      jump\t// in\n    tag_79:\n        /* \"#utility.yul\":2828:2853   */\n      swap2\n      pop\n        /* \"#utility.yul\":2867:2887   */\n      tag_80\n        /* \"#utility.yul\":2885:2886   */\n      dup4\n        /* \"#utility.yul\":2867:2887   */\n      tag_63\n      jump\t// in\n    tag_80:\n        /* \"#utility.yul\":2862:2887   */\n      swap3\n      pop\n        /* \"#utility.yul\":2906:2907   */\n      dup3\n        /* \"#utility.yul\":2903:2904   */\n      dup3\n        /* \"#utility.yul\":2900:2908   */\n      lt\n        /* \"#utility.yul\":2897:2899   */\n      iszero\n      tag_81\n      jumpi\n        /* \"#utility.yul\":2911:2929   */\n      tag_82\n      tag_77\n      jump\t// in\n    tag_82:\n        /* \"#utility.yul\":2897:2899   */\n    tag_81:\n        /* \"#utility.yul\":2956:2957   */\n      dup3\n        /* \"#utility.yul\":2953:2954   */\n      dup3\n        /* \"#utility.yul\":2949:2958   */\n      sub\n        /* \"#utility.yul\":2941:2958   */\n      swap1\n      pop\n        /* \"#utility.yul\":2818:2964   */\n      swap3\n      swap2\n      pop\n      pop\n      jump\t// out\n        /* \"#utility.yul\":2970:3060   */\n    tag_55:\n      0x00\n        /* \"#utility.yul\":3047:3052   */\n      dup2\n        /* \"#utility.yul\":3040:3053   */\n      iszero\n        /* \"#utility.yul\":3033:3054   */\n      iszero\n        /* \"#utility.yul\":3022:3054   */\n      swap1\n      pop\n        /* \"#utility.yul\":3012:3060   */\n      swap2\n      swap1\n      pop\n      jump\t// out\n        /* \"#utility.yul\":3066:3155   */\n    tag_73:\n      0x00\n        /* \"#utility.yul\":3142:3148   */\n      0xffff\n        /* \"#utility.yul\":3135:3140   */\n      dup3\n        /* \"#utility.yul\":3131:3149   */\n      and\n        /* \"#utility.yul\":3120:3149   */\n      swap1\n      pop\n        /* \"#utility.yul\":3110:3155   */\n      swap2\n      swap1\n      pop\n      jump\t// out\n        /* \"#utility.yul\":3161:3238   */\n    tag_63:\n      0x00\n        /* \"#utility.yul\":3227:3232   */\n      dup2\n        /* \"#utility.yul\":3216:3232   */\n      swap1\n      pop\n        /* \"#utility.yul\":3206:3238   */\n      swap2\n      swap1\n      pop\n      jump\t// out\n        /* \"#utility.yul\":3244:3330   */\n    tag_86:\n      0x00\n        /* \"#utility.yul\":3319:3323   */\n      0xff\n        /* \"#utility.yul\":3312:3317   */\n      dup3\n        /* \"#utility.yul\":3308:3324   */\n      and\n        /* \"#utility.yul\":3297:3324   */\n      swap1\n      pop\n        /* \"#utility.yul\":3287:3330   */\n      swap2\n      swap1\n      pop\n      jump\t// out\n        /* \"#utility.yul\":3336:3512   */\n    tag_24:\n      0x00\n        /* \"#utility.yul\":3385:3405   */\n      tag_89\n        /* \"#utility.yul\":3403:3404   */\n      dup3\n        /* \"#utility.yul\":3385:3405   */\n      tag_63\n      jump\t// in\n    tag_89:\n        /* \"#utility.yul\":3380:3405   */\n      swap2\n      pop\n        /* \"#utility.yul\":3419:3439   */\n      tag_90\n        /* \"#utility.yul\":3437:3438   */\n      dup4\n        /* \"#utility.yul\":3419:3439   */\n      tag_63\n      jump\t// in\n    tag_90:\n        /* \"#utility.yul\":3414:3439   */\n      swap3\n      pop\n        /* \"#utility.yul\":3458:3459   */\n      dup3\n        /* \"#utility.yul\":3448:3450   */\n      tag_91\n      jumpi\n        /* \"#utility.yul\":3463:3481   */\n      tag_92\n      tag_93\n      jump\t// in\n    tag_92:\n        /* \"#utility.yul\":3448:3450   */\n    tag_91:\n        /* \"#utility.yul\":3504:3505   */\n      dup3\n        /* \"#utility.yul\":3501:3502   */\n      dup3\n        /* \"#utility.yul\":3497:3506   */\n      mod\n        /* \"#utility.yul\":3492:3506   */\n      swap1\n      pop\n        /* \"#utility.yul\":3370:3512   */\n      swap3\n      swap2\n      pop\n      pop\n      jump\t// out\n        /* \"#utility.yul\":3518:3698   */\n    tag_77:\n        /* \"#utility.yul\":3566:3643   */\n      0x4e487b7100000000000000000000000000000000000000000000000000000000\n        /* \"#utility.yul\":3563:3564   */\n      0x00\n        /* \"#utility.yul\":3556:3644   */\n      mstore\n        /* \"#utility.yul\":3663:3667   */\n      0x11\n        /* \"#utility.yul\":3660:3661   */\n      0x04\n        /* \"#utility.yul\":3653:3668   */\n      mstore\n        /* \"#utility.yul\":3687:3691   */\n      0x24\n        /* \"#utility.yul\":3684:3685   */\n      0x00\n        /* \"#utility.yul\":3677:3692   */\n      revert\n        /* \"#utility.yul\":3704:3884   */\n    tag_93:\n        /* \"#utility.yul\":3752:3829   */\n      0x4e487b7100000000000000000000000000000000000000000000000000000000\n        /* \"#utility.yul\":3749:3750   */\n      0x00\n        /* \"#utility.yul\":3742:3830   */\n      mstore\n        /* \"#utility.yul\":3849:3853   */\n      0x12\n        /* \"#utility.yul\":3846:3847   */\n      0x04\n        /* \"#utility.yul\":3839:3854   */\n      mstore\n        /* \"#utility.yul\":3873:3877   */\n      0x24\n        /* \"#utility.yul\":3870:3871   */\n      0x00\n        /* \"#utility.yul\":3863:3878   */\n      revert\n        /* \"#utility.yul\":3890:4012   */\n    tag_40:\n        /* \"#utility.yul\":3963:3987   */\n      tag_97\n        /* \"#utility.yul\":3981:3986   */\n      dup2\n        /* \"#utility.yul\":3963:3987   */\n      tag_63\n      jump\t// in\n    tag_97:\n        /* \"#utility.yul\":3956:3961   */\n      dup2\n        /* \"#utility.yul\":3953:3988   */\n      eq\n        /* \"#utility.yul\":3943:3945   */\n      tag_98\n      jumpi\n        /* \"#utility.yul\":4002:4003   */\n      0x00\n        /* \"#utility.yul\":3999:4000   */\n      dup1\n        /* \"#utility.yul\":3992:4004   */\n      revert\n        /* \"#utility.yul\":3943:3945   */\n    tag_98:\n        /* \"#utility.yul\":3933:4012   */\n      pop\n      jump\t// out\n        /* \"#utility.yul\":4018:4136   */\n    tag_44:\n        /* \"#utility.yul\":4089:4111   */\n      tag_100\n        /* \"#utility.yul\":4105:4110   */\n      dup2\n        /* \"#utility.yul\":4089:4111   */\n      tag_86\n      jump\t// in\n    tag_100:\n        /* \"#utility.yul\":4082:4087   */\n      dup2\n        /* \"#utility.yul\":4079:4112   */\n      eq\n        /* \"#utility.yul\":4069:4071   */\n      tag_101\n      jumpi\n        /* \"#utility.yul\":4126:4127   */\n      0x00\n        /* \"#utility.yul\":4123:4124   */\n      dup1\n        /* \"#utility.yul\":4116:4128   */\n      revert\n        /* \"#utility.yul\":4069:4071   */\n    tag_101:\n        /* \"#utility.yul\":4059:4136   */\n      pop\n      jump\t// out\n\n    auxdata: 0xa2646970667358221220c8f36b718e46cbce12708feb934f9d16ce97038c2b36481782973b613d86351264736f6c63430008000033\n}\n",
				"bytecode": {
					"linkReferences": {},
					"object": "608060405234801561001057600080fd5b5061047a806100206000396000f3fe608060405234801561001057600080fd5b50600436106100415760003560e01c80630602c36a1461004657806310bbd0b51461007657806314cac586146100a6575b600080fd5b610060600480360381019061005b91906101c4565b6100d6565b60405161006d9190610287565b60405180910390f35b610090600480360381019061008b91906101c4565b6100ef565b60405161009d9190610287565b60405180910390f35b6100c060048036038101906100bb91906101ed565b610107565b6040516100cd91906102c2565b60405180910390f35b6000806002836100e69190610387565b14159050919050565b6000806002836100ff9190610387565b149050919050565b6000808260ff1611801561012057506101008260ff1611155b61015f576040517f08c379a0000000000000000000000000000000000000000000000000000000008152600401610156906102a2565b60405180910390fd5b600060018360ff166001901b6101759190610322565b9050808360ff1661010061018991906102ee565b61ffff1685901c1691505092915050565b6000813590506101a981610416565b92915050565b6000813590506101be8161042d565b92915050565b6000602082840312156101d657600080fd5b60006101e48482850161019a565b91505092915050565b6000806040838503121561020057600080fd5b600061020e8582860161019a565b925050602061021f858286016101af565b9150509250929050565b61023281610356565b82525050565b60006102456016836102dd565b91507f496e76616c6964206e756d626572206f662062697473000000000000000000006000830152602082019050919050565b61028181610370565b82525050565b600060208201905061029c6000830184610229565b92915050565b600060208201905081810360008301526102bb81610238565b9050919050565b60006020820190506102d76000830184610278565b92915050565b600082825260208201905092915050565b60006102f982610362565b915061030483610362565b925082821015610317576103166103b8565b5b828203905092915050565b600061032d82610370565b915061033883610370565b92508282101561034b5761034a6103b8565b5b828203905092915050565b60008115159050919050565b600061ffff82169050919050565b6000819050919050565b600060ff82169050919050565b600061039282610370565b915061039d83610370565b9250826103ad576103ac6103e7565b5b828206905092915050565b7f4e487b7100000000000000000000000000000000000000000000000000000000600052601160045260246000fd5b7f4e487b7100000000000000000000000000000000000000000000000000000000600052601260045260246000fd5b61041f81610370565b811461042a57600080fd5b50565b6104368161037a565b811461044157600080fd5b5056fea2646970667358221220c8f36b718e46cbce12708feb934f9d16ce97038c2b36481782973b613d86351264736f6c63430008000033",
					"opcodes": "PUSH1 0x80 PUSH1 0x40 MSTORE CALLVALUE DUP1 ISZERO PUSH2 0x10 JUMPI PUSH1 0x0 DUP1 REVERT JUMPDEST POP PUSH2 0x47A DUP1 PUSH2 0x20 PUSH1 0x0 CODECOPY PUSH1 0x0 RETURN INVALID PUSH1 0x80 PUSH1 0x40 MSTORE CALLVALUE DUP1 ISZERO PUSH2 0x10 JUMPI PUSH1 0x0 DUP1 REVERT JUMPDEST POP PUSH1 0x4 CALLDATASIZE LT PUSH2 0x41 JUMPI PUSH1 0x0 CALLDATALOAD PUSH1 0xE0 SHR DUP1 PUSH4 0x602C36A EQ PUSH2 0x46 JUMPI DUP1 PUSH4 0x10BBD0B5 EQ PUSH2 0x76 JUMPI DUP1 PUSH4 0x14CAC586 EQ PUSH2 0xA6 JUMPI JUMPDEST PUSH1 0x0 DUP1 REVERT JUMPDEST PUSH2 0x60 PUSH1 0x4 DUP1 CALLDATASIZE SUB DUP2 ADD SWAP1 PUSH2 0x5B SWAP2 SWAP1 PUSH2 0x1C4 JUMP JUMPDEST PUSH2 0xD6 JUMP JUMPDEST PUSH1 0x40 MLOAD PUSH2 0x6D SWAP2 SWAP1 PUSH2 0x287 JUMP JUMPDEST PUSH1 0x40 MLOAD DUP1 SWAP2 SUB SWAP1 RETURN JUMPDEST PUSH2 0x90 PUSH1 0x4 DUP1 CALLDATASIZE SUB DUP2 ADD SWAP1 PUSH2 0x8B SWAP2 SWAP1 PUSH2 0x1C4 JUMP JUMPDEST PUSH2 0xEF JUMP JUMPDEST PUSH1 0x40 MLOAD PUSH2 0x9D SWAP2 SWAP1 PUSH2 0x287 JUMP JUMPDEST PUSH1 0x40 MLOAD DUP1 SWAP2 SUB SWAP1 RETURN JUMPDEST PUSH2 0xC0 PUSH1 0x4 DUP1 CALLDATASIZE SUB DUP2 ADD SWAP1 PUSH2 0xBB SWAP2 SWAP1 PUSH2 0x1ED JUMP JUMPDEST PUSH2 0x107 JUMP JUMPDEST PUSH1 0x40 MLOAD PUSH2 0xCD SWAP2 SWAP1 PUSH2 0x2C2 JUMP JUMPDEST PUSH1 0x40 MLOAD DUP1 SWAP2 SUB SWAP1 RETURN JUMPDEST PUSH1 0x0 DUP1 PUSH1 0x2 DUP4 PUSH2 0xE6 SWAP2 SWAP1 PUSH2 0x387 JUMP JUMPDEST EQ ISZERO SWAP1 POP SWAP2 SWAP1 POP JUMP JUMPDEST PUSH1 0x0 DUP1 PUSH1 0x2 DUP4 PUSH2 0xFF SWAP2 SWAP1 PUSH2 0x387 JUMP JUMPDEST EQ SWAP1 POP SWAP2 SWAP1 POP JUMP JUMPDEST PUSH1 0x0 DUP1 DUP3 PUSH1 0xFF AND GT DUP1 ISZERO PUSH2 0x120 JUMPI POP PUSH2 0x100 DUP3 PUSH1 0xFF AND GT ISZERO JUMPDEST PUSH2 0x15F JUMPI PUSH1 0x40 MLOAD PUSH32 0x8C379A000000000000000000000000000000000000000000000000000000000 DUP2 MSTORE PUSH1 0x4 ADD PUSH2 0x156 SWAP1 PUSH2 0x2A2 JUMP JUMPDEST PUSH1 0x40 MLOAD DUP1 SWAP2 SUB SWAP1 REVERT JUMPDEST PUSH1 0x0 PUSH1 0x1 DUP4 PUSH1 0xFF AND PUSH1 0x1 SWAP1 SHL PUSH2 0x175 SWAP2 SWAP1 PUSH2 0x322 JUMP JUMPDEST SWAP1 POP DUP1 DUP4 PUSH1 0xFF AND PUSH2 0x100 PUSH2 0x189 SWAP2 SWAP1 PUSH2 0x2EE JUMP JUMPDEST PUSH2 0xFFFF AND DUP6 SWAP1 SHR AND SWAP2 POP POP SWAP3 SWAP2 POP POP JUMP JUMPDEST PUSH1 0x0 DUP2 CALLDATALOAD SWAP1 POP PUSH2 0x1A9 DUP2 PUSH2 0x416 JUMP JUMPDEST SWAP3 SWAP2 POP POP JUMP JUMPDEST PUSH1 0x0 DUP2 CALLDATALOAD SWAP1 POP PUSH2 0x1BE DUP2 PUSH2 0x42D JUMP JUMPDEST SWAP3 SWAP2 POP POP JUMP JUMPDEST PUSH1 0x0 PUSH1 0x20 DUP3 DUP5 SUB SLT ISZERO PUSH2 0x1D6 JUMPI PUSH1 0x0 DUP1 REVERT JUMPDEST PUSH1 0x0 PUSH2 0x1E4 DUP5 DUP3 DUP6 ADD PUSH2 0x19A JUMP JUMPDEST SWAP2 POP POP SWAP3 SWAP2 POP POP JUMP JUMPDEST PUSH1 0x0 DUP1 PUSH1 0x40 DUP4 DUP6 SUB SLT ISZERO PUSH2 0x200 JUMPI PUSH1 0x0 DUP1 REVERT JUMPDEST PUSH1 0x0 PUSH2 0x20E DUP6 DUP3 DUP7 ADD PUSH2 0x19A JUMP JUMPDEST SWAP3 POP POP PUSH1 0x20 PUSH2 0x21F DUP6 DUP3 DUP7 ADD PUSH2 0x1AF JUMP JUMPDEST SWAP2 POP POP SWAP3 POP SWAP3 SWAP1 POP JUMP JUMPDEST PUSH2 0x232 DUP2 PUSH2 0x356 JUMP JUMPDEST DUP3 MSTORE POP POP JUMP JUMPDEST PUSH1 0x0 PUSH2 0x245 PUSH1 0x16 DUP4 PUSH2 0x2DD JUMP JUMPDEST SWAP2 POP PUSH32 0x496E76616C6964206E756D626572206F66206269747300000000000000000000 PUSH1 0x0 DUP4 ADD MSTORE PUSH1 0x20 DUP3 ADD SWAP1 POP SWAP2 SWAP1 POP JUMP JUMPDEST PUSH2 0x281 DUP2 PUSH2 0x370 JUMP JUMPDEST DUP3 MSTORE POP POP JUMP JUMPDEST PUSH1 0x0 PUSH1 0x20 DUP3 ADD SWAP1 POP PUSH2 0x29C PUSH1 0x0 DUP4 ADD DUP5 PUSH2 0x229 JUMP JUMPDEST SWAP3 SWAP2 POP POP JUMP JUMPDEST PUSH1 0x0 PUSH1 0x20 DUP3 ADD SWAP1 POP DUP2 DUP2 SUB PUSH1 0x0 DUP4 ADD MSTORE PUSH2 0x2BB DUP2 PUSH2 0x238 JUMP JUMPDEST SWAP1 POP SWAP2 SWAP1 POP JUMP JUMPDEST PUSH1 0x0 PUSH1 0x20 DUP3 ADD SWAP1 POP PUSH2 0x2D7 PUSH1 0x0 DUP4 ADD DUP5 PUSH2 0x278 JUMP JUMPDEST SWAP3 SWAP2 POP POP JUMP JUMPDEST PUSH1 0x0 DUP3 DUP3 MSTORE PUSH1 0x20 DUP3 ADD SWAP1 POP SWAP3 SWAP2 POP POP JUMP JUMPDEST PUSH1 0x0 PUSH2 0x2F9 DUP3 PUSH2 0x362 JUMP JUMPDEST SWAP2 POP PUSH2 0x304 DUP4 PUSH2 0x362 JUMP JUMPDEST SWAP3 POP DUP3 DUP3 LT ISZERO PUSH2 0x317 JUMPI PUSH2 0x316 PUSH2 0x3B8 JUMP JUMPDEST JUMPDEST DUP3 DUP3 SUB SWAP1 POP SWAP3 SWAP2 POP POP JUMP JUMPDEST PUSH1 0x0 PUSH2 0x32D DUP3 PUSH2 0x370 JUMP JUMPDEST SWAP2 POP PUSH2 0x338 DUP4 PUSH2 0x370 JUMP JUMPDEST SWAP3 POP DUP3 DUP3 LT ISZERO PUSH2 0x34B JUMPI PUSH2 0x34A PUSH2 0x3B8 JUMP JUMPDEST JUMPDEST DUP3 DUP3 SUB SWAP1 POP SWAP3 SWAP2 POP POP JUMP JUMPDEST PUSH1 0x0 DUP2 ISZERO ISZERO SWAP1 POP SWAP2 SWAP1 POP JUMP JUMPDEST PUSH1 0x0 PUSH2 0xFFFF DUP3 AND SWAP1 POP SWAP2 SWAP1 POP JUMP JUMPDEST PUSH1 0x0 DUP2 SWAP1 POP SWAP2 SWAP1 POP JUMP JUMPDEST PUSH1 0x0 PUSH1 0xFF DUP3 AND SWAP1 POP SWAP2 SWAP1 POP JUMP JUMPDEST PUSH1 0x0 PUSH2 0x392 DUP3 PUSH2 0x370 JUMP JUMPDEST SWAP2 POP PUSH2 0x39D DUP4 PUSH2 0x370 JUMP JUMPDEST SWAP3 POP DUP3 PUSH2 0x3AD JUMPI PUSH2 0x3AC PUSH2 0x3E7 JUMP JUMPDEST JUMPDEST DUP3 DUP3 MOD SWAP1 POP SWAP3 SWAP2 POP POP JUMP JUMPDEST PUSH32 0x4E487B7100000000000000000000000000000000000000000000000000000000 PUSH1 0x0 MSTORE PUSH1 0x11 PUSH1 0x4 MSTORE PUSH1 0x24 PUSH1 0x0 REVERT JUMPDEST PUSH32 0x4E487B7100000000000000000000000000000000000000000000000000000000 PUSH1 0x0 MSTORE PUSH1 0x12 PUSH1 0x4 MSTORE PUSH1 0x24 PUSH1 0x0 REVERT JUMPDEST PUSH2 0x41F DUP2 PUSH2 0x370 JUMP JUMPDEST DUP2 EQ PUSH2 0x42A JUMPI PUSH1 0x0 DUP1 REVERT JUMPDEST POP JUMP JUMPDEST PUSH2 0x436 DUP2 PUSH2 0x37A JUMP JUMPDEST DUP2 EQ PUSH2 0x441 JUMPI PUSH1 0x0 DUP1 REVERT JUMPDEST POP JUMP INVALID LOG2 PUSH5 0x6970667358 0x22 SLT KECCAK256 0xC8 RETURN PUSH12 0x718E46CBCE12708FEB934F9D AND 0xCE SWAP8 SUB DUP13 0x2B CALLDATASIZE 0x48 OR DUP3 SWAP8 EXTCODESIZE PUSH2 0x3D86 CALLDATALOAD SLT PUSH5 0x736F6C6343 STOP ADDMOD STOP STOP CALLER "
				},
				"gasEstimates": {
					"creation": {
						"codeDepositCost": "229200",
						"executionCost": "269",
						"totalCost": "229469"
					},
					"external": {
						"Even(uint256)": "infinite",
						"mostSignificantBits(uint256,uint8)": "infinite",
						"odd(uint256)": "infinite"
					}
				},
				"methodIdentifiers": {
					"Even(uint256)": "10bbd0b5",
					"mostSignificantBits(uint256,uint8)": "14cac586",
					"odd(uint256)": "0602c36a"
				}
			},
			"storageLayout": {
				"storage": [],
				"types": null
			},
			"userdoc": {
				"kind": "user",
				"methods": {},
				"version": 1
			}
		}
	}
}