{
	"contracts/artifacts/koshman.sol": {
		"Assignment": {
			"abi": [
				{
					"inputs": [
						{
							"internalType": "uint256",
							"name": "number",
							"type": "uint256"
						}
					],
					"name": "even",
					"outputs": [
						{
							"internalType": "bool",
							"name": "",
							"type": "bool"
						}
					],
					"stateMutability": "pure",
					"type": "function"
				},
				{
					"inputs": [
						{
							"internalType": "uint256",
							"name": "number",
							"type": "uint256"
						},
						{
							"internalType": "uint256",
							"name": "numberOfBits",
							"type": "uint256"
						}
					],
					"name": "getMostSignificantBits",
					"outputs": [
						{
							"internalType": "uint256",
							"name": "",
							"type": "uint256"
						}
					],
					"stateMutability": "pure",
					"type": "function"
				},
				{
					"inputs": [
						{
							"internalType": "uint256",
							"name": "number",
							"type": "uint256"
						}
					],
					"name": "odd",
					"outputs": [
						{
							"internalType": "bool",
							"name": "",
							"type": "bool"
						}
					],
					"stateMutability": "pure",
					"type": "function"
				}
			],
			"devdoc": {
				"kind": "dev",
				"methods": {},
				"version": 1
			},
			"evm": {
				"assembly": "    /* \"contracts/artifacts/koshman.sol\":65:821  contract Assignment {... */\n  mstore(0x40, 0x80)\n  callvalue\n  dup1\n  iszero\n  tag_1\n  jumpi\n  0x00\n  dup1\n  revert\ntag_1:\n  pop\n  dataSize(sub_0)\n  dup1\n  dataOffset(sub_0)\n  0x00\n  codecopy\n  0x00\n  return\nstop\n\nsub_0: assembly {\n        /* \"contracts/artifacts/koshman.sol\":65:821  contract Assignment {... */\n      mstore(0x40, 0x80)\n      callvalue\n      dup1\n      iszero\n      tag_1\n      jumpi\n      0x00\n      dup1\n      revert\n    tag_1:\n      pop\n      jumpi(tag_2, lt(calldatasize, 0x04))\n      shr(0xe0, calldataload(0x00))\n      dup1\n      0x0602c36a\n      eq\n      tag_3\n      jumpi\n      dup1\n      0x6a2757db\n      eq\n      tag_4\n      jumpi\n      dup1\n      0x9aef81fe\n      eq\n      tag_5\n      jumpi\n    tag_2:\n      0x00\n      dup1\n      revert\n        /* \"contracts/artifacts/koshman.sol\":206:409  function odd(uint256 number) public pure  returns (bool) {... */\n    tag_3:\n      tag_6\n      0x04\n      dup1\n      calldatasize\n      sub\n      dup2\n      add\n      swap1\n      tag_7\n      swap2\n      swap1\n      tag_8\n      jump\t// in\n    tag_7:\n      tag_9\n      jump\t// in\n    tag_6:\n      mload(0x40)\n      tag_10\n      swap2\n      swap1\n      tag_11\n      jump\t// in\n    tag_10:\n      mload(0x40)\n      dup1\n      swap2\n      sub\n      swap1\n      return\n        /* \"contracts/artifacts/koshman.sol\":517:817  function getMostSignificantBits(uint256 number, uint256 numberOfBits) public pure returns (uint256){... */\n    tag_4:\n      tag_12\n      0x04\n      dup1\n      calldatasize\n      sub\n      dup2\n      add\n      swap1\n      tag_13\n      swap2\n      swap1\n      tag_14\n      jump\t// in\n    tag_13:\n      tag_15\n      jump\t// in\n    tag_12:\n      mload(0x40)\n      tag_16\n      swap2\n      swap1\n      tag_17\n      jump\t// in\n    tag_16:\n      mload(0x40)\n      dup1\n      swap2\n      sub\n      swap1\n      return\n        /* \"contracts/artifacts/koshman.sol\":416:510  function even(uint256 number) public pure returns (bool) {... */\n    tag_5:\n      tag_18\n      0x04\n      dup1\n      calldatasize\n      sub\n      dup2\n      add\n      swap1\n      tag_19\n      swap2\n      swap1\n      tag_8\n      jump\t// in\n    tag_19:\n      tag_20\n      jump\t// in\n    tag_18:\n      mload(0x40)\n      tag_21\n      swap2\n      swap1\n      tag_11\n      jump\t// in\n    tag_21:\n      mload(0x40)\n      dup1\n      swap2\n      sub\n      swap1\n      return\n        /* \"contracts/artifacts/koshman.sol\":206:409  function odd(uint256 number) public pure  returns (bool) {... */\n    tag_9:\n        /* \"contracts/artifacts/koshman.sol\":257:261  bool */\n      0x00\n        /* \"contracts/artifacts/koshman.sol\":297:298  0 */\n      dup1\n        /* \"contracts/artifacts/koshman.sol\":292:293  2 */\n      0x02\n        /* \"contracts/artifacts/koshman.sol\":283:289  number */\n      dup4\n        /* \"contracts/artifacts/koshman.sol\":283:293  number % 2 */\n      tag_23\n      swap2\n      swap1\n      tag_24\n      jump\t// in\n    tag_23:\n        /* \"contracts/artifacts/koshman.sol\":283:298  number % 2 != 0 */\n      eq\n      iszero\n        /* \"contracts/artifacts/koshman.sol\":276:298  return number % 2 != 0 */\n      swap1\n      pop\n        /* \"contracts/artifacts/koshman.sol\":206:409  function odd(uint256 number) public pure  returns (bool) {... */\n      swap2\n      swap1\n      pop\n      jump\t// out\n        /* \"contracts/artifacts/koshman.sol\":517:817  function getMostSignificantBits(uint256 number, uint256 numberOfBits) public pure returns (uint256){... */\n    tag_15:\n        /* \"contracts/artifacts/koshman.sol\":608:615  uint256 */\n      0x00\n        /* \"contracts/artifacts/koshman.sol\":651:652  0 */\n      dup1\n        /* \"contracts/artifacts/koshman.sol\":636:648  numberOfBits */\n      dup3\n        /* \"contracts/artifacts/koshman.sol\":636:652  numberOfBits > 0 */\n      gt\n        /* \"contracts/artifacts/koshman.sol\":636:675  numberOfBits > 0 && numberOfBits <= 256 */\n      dup1\n      iszero\n      tag_26\n      jumpi\n      pop\n        /* \"contracts/artifacts/koshman.sol\":672:675  256 */\n      0x0100\n        /* \"contracts/artifacts/koshman.sol\":656:668  numberOfBits */\n      dup3\n        /* \"contracts/artifacts/koshman.sol\":656:675  numberOfBits <= 256 */\n      gt\n      iszero\n        /* \"contracts/artifacts/koshman.sol\":636:675  numberOfBits > 0 && numberOfBits <= 256 */\n    tag_26:\n        /* \"contracts/artifacts/koshman.sol\":628:702  require(numberOfBits > 0 && numberOfBits <= 256, \"Invalid number of bits\") */\n      tag_27\n      jumpi\n      mload(0x40)\n      0x08c379a000000000000000000000000000000000000000000000000000000000\n      dup2\n      mstore\n      0x04\n      add\n      tag_28\n      swap1\n      tag_29\n      jump\t// in\n    tag_28:\n      mload(0x40)\n      dup1\n      swap2\n      sub\n      swap1\n      revert\n    tag_27:\n        /* \"contracts/artifacts/koshman.sol\":714:726  uint256 mask */\n      0x00\n        /* \"contracts/artifacts/koshman.sol\":751:752  1 */\n      0x01\n        /* \"contracts/artifacts/koshman.sol\":735:747  numberOfBits */\n      dup4\n        /* \"contracts/artifacts/koshman.sol\":730:731  1 */\n      0x01\n        /* \"contracts/artifacts/koshman.sol\":730:747  1 << numberOfBits */\n      swap1\n      shl\n        /* \"contracts/artifacts/koshman.sol\":729:752  (1 << numberOfBits) - 1 */\n      tag_30\n      swap2\n      swap1\n      tag_31\n      jump\t// in\n    tag_30:\n        /* \"contracts/artifacts/koshman.sol\":714:752  uint256 mask = (1 << numberOfBits) - 1 */\n      swap1\n      pop\n        /* \"contracts/artifacts/koshman.sol\":804:808  mask */\n      dup1\n        /* \"contracts/artifacts/koshman.sol\":788:800  numberOfBits */\n      dup4\n        /* \"contracts/artifacts/koshman.sol\":782:785  256 */\n      0x0100\n        /* \"contracts/artifacts/koshman.sol\":782:800  256 - numberOfBits */\n      tag_32\n      swap2\n      swap1\n      tag_31\n      jump\t// in\n    tag_32:\n        /* \"contracts/artifacts/koshman.sol\":771:777  number */\n      dup6\n        /* \"contracts/artifacts/koshman.sol\":771:801  number >> (256 - numberOfBits) */\n      swap1\n      shr\n        /* \"contracts/artifacts/koshman.sol\":771:808  number >> (256 - numberOfBits) & mask */\n      and\n        /* \"contracts/artifacts/koshman.sol\":764:808  return number >> (256 - numberOfBits) & mask */\n      swap2\n      pop\n      pop\n        /* \"contracts/artifacts/koshman.sol\":517:817  function getMostSignificantBits(uint256 number, uint256 numberOfBits) public pure returns (uint256){... */\n      swap3\n      swap2\n      pop\n      pop\n      jump\t// out\n        /* \"contracts/artifacts/koshman.sol\":416:510  function even(uint256 number) public pure returns (bool) {... */\n    tag_20:\n        /* \"contracts/artifacts/koshman.sol\":467:471  bool */\n      0x00\n        /* \"contracts/artifacts/koshman.sol\":502:503  0 */\n      dup1\n        /* \"contracts/artifacts/koshman.sol\":498:499  2 */\n      0x02\n        /* \"contracts/artifacts/koshman.sol\":489:495  number */\n      dup4\n        /* \"contracts/artifacts/koshman.sol\":489:499  number % 2 */\n      tag_34\n      swap2\n      swap1\n      tag_24\n      jump\t// in\n    tag_34:\n        /* \"contracts/artifacts/koshman.sol\":489:503  number % 2 ==0 */\n      eq\n        /* \"contracts/artifacts/koshman.sol\":482:503  return number % 2 ==0 */\n      swap1\n      pop\n        /* \"contracts/artifacts/koshman.sol\":416:510  function even(uint256 number) public pure returns (bool) {... */\n      swap2\n      swap1\n      pop\n      jump\t// out\n        /* \"#utility.yul\":88:205   */\n    tag_36:\n        /* \"#utility.yul\":197:198   */\n      0x00\n        /* \"#utility.yul\":194:195   */\n      dup1\n        /* \"#utility.yul\":187:199   */\n      revert\n        /* \"#utility.yul\":334:411   */\n    tag_38:\n        /* \"#utility.yul\":371:378   */\n      0x00\n        /* \"#utility.yul\":400:405   */\n      dup2\n        /* \"#utility.yul\":389:405   */\n      swap1\n      pop\n        /* \"#utility.yul\":334:411   */\n      swap2\n      swap1\n      pop\n      jump\t// out\n        /* \"#utility.yul\":417:539   */\n    tag_39:\n        /* \"#utility.yul\":490:514   */\n      tag_55\n        /* \"#utility.yul\":508:513   */\n      dup2\n        /* \"#utility.yul\":490:514   */\n      tag_38\n      jump\t// in\n    tag_55:\n        /* \"#utility.yul\":483:488   */\n      dup2\n        /* \"#utility.yul\":480:515   */\n      eq\n        /* \"#utility.yul\":470:533   */\n      tag_56\n      jumpi\n        /* \"#utility.yul\":529:530   */\n      0x00\n        /* \"#utility.yul\":526:527   */\n      dup1\n        /* \"#utility.yul\":519:531   */\n      revert\n        /* \"#utility.yul\":470:533   */\n    tag_56:\n        /* \"#utility.yul\":417:539   */\n      pop\n      jump\t// out\n        /* \"#utility.yul\":545:684   */\n    tag_40:\n        /* \"#utility.yul\":591:596   */\n      0x00\n        /* \"#utility.yul\":629:635   */\n      dup2\n        /* \"#utility.yul\":616:636   */\n      calldataload\n        /* \"#utility.yul\":607:636   */\n      swap1\n      pop\n        /* \"#utility.yul\":645:678   */\n      tag_58\n        /* \"#utility.yul\":672:677   */\n      dup2\n        /* \"#utility.yul\":645:678   */\n      tag_39\n      jump\t// in\n    tag_58:\n        /* \"#utility.yul\":545:684   */\n      swap3\n      swap2\n      pop\n      pop\n      jump\t// out\n        /* \"#utility.yul\":690:1019   */\n    tag_8:\n        /* \"#utility.yul\":749:755   */\n      0x00\n        /* \"#utility.yul\":798:800   */\n      0x20\n        /* \"#utility.yul\":786:795   */\n      dup3\n        /* \"#utility.yul\":777:784   */\n      dup5\n        /* \"#utility.yul\":773:796   */\n      sub\n        /* \"#utility.yul\":769:801   */\n      slt\n        /* \"#utility.yul\":766:885   */\n      iszero\n      tag_60\n      jumpi\n        /* \"#utility.yul\":804:883   */\n      tag_61\n      tag_36\n      jump\t// in\n    tag_61:\n        /* \"#utility.yul\":766:885   */\n    tag_60:\n        /* \"#utility.yul\":924:925   */\n      0x00\n        /* \"#utility.yul\":949:1002   */\n      tag_62\n        /* \"#utility.yul\":994:1001   */\n      dup5\n        /* \"#utility.yul\":985:991   */\n      dup3\n        /* \"#utility.yul\":974:983   */\n      dup6\n        /* \"#utility.yul\":970:992   */\n      add\n        /* \"#utility.yul\":949:1002   */\n      tag_40\n      jump\t// in\n    tag_62:\n        /* \"#utility.yul\":939:1002   */\n      swap2\n      pop\n        /* \"#utility.yul\":895:1012   */\n      pop\n        /* \"#utility.yul\":690:1019   */\n      swap3\n      swap2\n      pop\n      pop\n      jump\t// out\n        /* \"#utility.yul\":1025:1115   */\n    tag_41:\n        /* \"#utility.yul\":1059:1066   */\n      0x00\n        /* \"#utility.yul\":1102:1107   */\n      dup2\n        /* \"#utility.yul\":1095:1108   */\n      iszero\n        /* \"#utility.yul\":1088:1109   */\n      iszero\n        /* \"#utility.yul\":1077:1109   */\n      swap1\n      pop\n        /* \"#utility.yul\":1025:1115   */\n      swap2\n      swap1\n      pop\n      jump\t// out\n        /* \"#utility.yul\":1121:1230   */\n    tag_42:\n        /* \"#utility.yul\":1202:1223   */\n      tag_65\n        /* \"#utility.yul\":1217:1222   */\n      dup2\n        /* \"#utility.yul\":1202:1223   */\n      tag_41\n      jump\t// in\n    tag_65:\n        /* \"#utility.yul\":1197:1200   */\n      dup3\n        /* \"#utility.yul\":1190:1224   */\n      mstore\n        /* \"#utility.yul\":1121:1230   */\n      pop\n      pop\n      jump\t// out\n        /* \"#utility.yul\":1236:1446   */\n    tag_11:\n        /* \"#utility.yul\":1323:1327   */\n      0x00\n        /* \"#utility.yul\":1361:1363   */\n      0x20\n        /* \"#utility.yul\":1350:1359   */\n      dup3\n        /* \"#utility.yul\":1346:1364   */\n      add\n        /* \"#utility.yul\":1338:1364   */\n      swap1\n      pop\n        /* \"#utility.yul\":1374:1439   */\n      tag_67\n        /* \"#utility.yul\":1436:1437   */\n      0x00\n        /* \"#utility.yul\":1425:1434   */\n      dup4\n        /* \"#utility.yul\":1421:1438   */\n      add\n        /* \"#utility.yul\":1412:1418   */\n      dup5\n        /* \"#utility.yul\":1374:1439   */\n      tag_42\n      jump\t// in\n    tag_67:\n        /* \"#utility.yul\":1236:1446   */\n      swap3\n      swap2\n      pop\n      pop\n      jump\t// out\n        /* \"#utility.yul\":1452:1926   */\n    tag_14:\n        /* \"#utility.yul\":1520:1526   */\n      0x00\n        /* \"#utility.yul\":1528:1534   */\n      dup1\n        /* \"#utility.yul\":1577:1579   */\n      0x40\n        /* \"#utility.yul\":1565:1574   */\n      dup4\n        /* \"#utility.yul\":1556:1563   */\n      dup6\n        /* \"#utility.yul\":1552:1575   */\n      sub\n        /* \"#utility.yul\":1548:1580   */\n      slt\n        /* \"#utility.yul\":1545:1664   */\n      iszero\n      tag_69\n      jumpi\n        /* \"#utility.yul\":1583:1662   */\n      tag_70\n      tag_36\n      jump\t// in\n    tag_70:\n        /* \"#utility.yul\":1545:1664   */\n    tag_69:\n        /* \"#utility.yul\":1703:1704   */\n      0x00\n        /* \"#utility.yul\":1728:1781   */\n      tag_71\n        /* \"#utility.yul\":1773:1780   */\n      dup6\n        /* \"#utility.yul\":1764:1770   */\n      dup3\n        /* \"#utility.yul\":1753:1762   */\n      dup7\n        /* \"#utility.yul\":1749:1771   */\n      add\n        /* \"#utility.yul\":1728:1781   */\n      tag_40\n      jump\t// in\n    tag_71:\n        /* \"#utility.yul\":1718:1781   */\n      swap3\n      pop\n        /* \"#utility.yul\":1674:1791   */\n      pop\n        /* \"#utility.yul\":1830:1832   */\n      0x20\n        /* \"#utility.yul\":1856:1909   */\n      tag_72\n        /* \"#utility.yul\":1901:1908   */\n      dup6\n        /* \"#utility.yul\":1892:1898   */\n      dup3\n        /* \"#utility.yul\":1881:1890   */\n      dup7\n        /* \"#utility.yul\":1877:1899   */\n      add\n        /* \"#utility.yul\":1856:1909   */\n      tag_40\n      jump\t// in\n    tag_72:\n        /* \"#utility.yul\":1846:1909   */\n      swap2\n      pop\n        /* \"#utility.yul\":1801:1919   */\n      pop\n        /* \"#utility.yul\":1452:1926   */\n      swap3\n      pop\n      swap3\n      swap1\n      pop\n      jump\t// out\n        /* \"#utility.yul\":1932:2050   */\n    tag_43:\n        /* \"#utility.yul\":2019:2043   */\n      tag_74\n        /* \"#utility.yul\":2037:2042   */\n      dup2\n        /* \"#utility.yul\":2019:2043   */\n      tag_38\n      jump\t// in\n    tag_74:\n        /* \"#utility.yul\":2014:2017   */\n      dup3\n        /* \"#utility.yul\":2007:2044   */\n      mstore\n        /* \"#utility.yul\":1932:2050   */\n      pop\n      pop\n      jump\t// out\n        /* \"#utility.yul\":2056:2278   */\n    tag_17:\n        /* \"#utility.yul\":2149:2153   */\n      0x00\n        /* \"#utility.yul\":2187:2189   */\n      0x20\n        /* \"#utility.yul\":2176:2185   */\n      dup3\n        /* \"#utility.yul\":2172:2190   */\n      add\n        /* \"#utility.yul\":2164:2190   */\n      swap1\n      pop\n        /* \"#utility.yul\":2200:2271   */\n      tag_76\n        /* \"#utility.yul\":2268:2269   */\n      0x00\n        /* \"#utility.yul\":2257:2266   */\n      dup4\n        /* \"#utility.yul\":2253:2270   */\n      add\n        /* \"#utility.yul\":2244:2250   */\n      dup5\n        /* \"#utility.yul\":2200:2271   */\n      tag_43\n      jump\t// in\n    tag_76:\n        /* \"#utility.yul\":2056:2278   */\n      swap3\n      swap2\n      pop\n      pop\n      jump\t// out\n        /* \"#utility.yul\":2284:2464   */\n    tag_44:\n        /* \"#utility.yul\":2332:2409   */\n      0x4e487b7100000000000000000000000000000000000000000000000000000000\n        /* \"#utility.yul\":2329:2330   */\n      0x00\n        /* \"#utility.yul\":2322:2410   */\n      mstore\n        /* \"#utility.yul\":2429:2433   */\n      0x12\n        /* \"#utility.yul\":2426:2427   */\n      0x04\n        /* \"#utility.yul\":2419:2434   */\n      mstore\n        /* \"#utility.yul\":2453:2457   */\n      0x24\n        /* \"#utility.yul\":2450:2451   */\n      0x00\n        /* \"#utility.yul\":2443:2458   */\n      revert\n        /* \"#utility.yul\":2470:2646   */\n    tag_24:\n        /* \"#utility.yul\":2502:2503   */\n      0x00\n        /* \"#utility.yul\":2519:2539   */\n      tag_79\n        /* \"#utility.yul\":2537:2538   */\n      dup3\n        /* \"#utility.yul\":2519:2539   */\n      tag_38\n      jump\t// in\n    tag_79:\n        /* \"#utility.yul\":2514:2539   */\n      swap2\n      pop\n        /* \"#utility.yul\":2553:2573   */\n      tag_80\n        /* \"#utility.yul\":2571:2572   */\n      dup4\n        /* \"#utility.yul\":2553:2573   */\n      tag_38\n      jump\t// in\n    tag_80:\n        /* \"#utility.yul\":2548:2573   */\n      swap3\n      pop\n        /* \"#utility.yul\":2592:2593   */\n      dup3\n        /* \"#utility.yul\":2582:2617   */\n      tag_81\n      jumpi\n        /* \"#utility.yul\":2597:2615   */\n      tag_82\n      tag_44\n      jump\t// in\n    tag_82:\n        /* \"#utility.yul\":2582:2617   */\n    tag_81:\n        /* \"#utility.yul\":2638:2639   */\n      dup3\n        /* \"#utility.yul\":2635:2636   */\n      dup3\n        /* \"#utility.yul\":2631:2640   */\n      mod\n        /* \"#utility.yul\":2626:2640   */\n      swap1\n      pop\n        /* \"#utility.yul\":2470:2646   */\n      swap3\n      swap2\n      pop\n      pop\n      jump\t// out\n        /* \"#utility.yul\":2652:2821   */\n    tag_45:\n        /* \"#utility.yul\":2736:2747   */\n      0x00\n        /* \"#utility.yul\":2770:2776   */\n      dup3\n        /* \"#utility.yul\":2765:2768   */\n      dup3\n        /* \"#utility.yul\":2758:2777   */\n      mstore\n        /* \"#utility.yul\":2810:2814   */\n      0x20\n        /* \"#utility.yul\":2805:2808   */\n      dup3\n        /* \"#utility.yul\":2801:2815   */\n      add\n        /* \"#utility.yul\":2786:2815   */\n      swap1\n      pop\n        /* \"#utility.yul\":2652:2821   */\n      swap3\n      swap2\n      pop\n      pop\n      jump\t// out\n        /* \"#utility.yul\":2827:2999   */\n    tag_46:\n        /* \"#utility.yul\":2967:2991   */\n      0x496e76616c6964206e756d626572206f66206269747300000000000000000000\n        /* \"#utility.yul\":2963:2964   */\n      0x00\n        /* \"#utility.yul\":2955:2961   */\n      dup3\n        /* \"#utility.yul\":2951:2965   */\n      add\n        /* \"#utility.yul\":2944:2992   */\n      mstore\n        /* \"#utility.yul\":2827:2999   */\n      pop\n      jump\t// out\n        /* \"#utility.yul\":3005:3371   */\n    tag_47:\n        /* \"#utility.yul\":3147:3150   */\n      0x00\n        /* \"#utility.yul\":3168:3235   */\n      tag_86\n        /* \"#utility.yul\":3232:3234   */\n      0x16\n        /* \"#utility.yul\":3227:3230   */\n      dup4\n        /* \"#utility.yul\":3168:3235   */\n      tag_45\n      jump\t// in\n    tag_86:\n        /* \"#utility.yul\":3161:3235   */\n      swap2\n      pop\n        /* \"#utility.yul\":3244:3337   */\n      tag_87\n        /* \"#utility.yul\":3333:3336   */\n      dup3\n        /* \"#utility.yul\":3244:3337   */\n      tag_46\n      jump\t// in\n    tag_87:\n        /* \"#utility.yul\":3362:3364   */\n      0x20\n        /* \"#utility.yul\":3357:3360   */\n      dup3\n        /* \"#utility.yul\":3353:3365   */\n      add\n        /* \"#utility.yul\":3346:3365   */\n      swap1\n      pop\n        /* \"#utility.yul\":3005:3371   */\n      swap2\n      swap1\n      pop\n      jump\t// out\n        /* \"#utility.yul\":3377:3796   */\n    tag_29:\n        /* \"#utility.yul\":3543:3547   */\n      0x00\n        /* \"#utility.yul\":3581:3583   */\n      0x20\n        /* \"#utility.yul\":3570:3579   */\n      dup3\n        /* \"#utility.yul\":3566:3584   */\n      add\n        /* \"#utility.yul\":3558:3584   */\n      swap1\n      pop\n        /* \"#utility.yul\":3630:3639   */\n      dup2\n        /* \"#utility.yul\":3624:3628   */\n      dup2\n        /* \"#utility.yul\":3620:3640   */\n      sub\n        /* \"#utility.yul\":3616:3617   */\n      0x00\n        /* \"#utility.yul\":3605:3614   */\n      dup4\n        /* \"#utility.yul\":3601:3618   */\n      add\n        /* \"#utility.yul\":3594:3641   */\n      mstore\n        /* \"#utility.yul\":3658:3789   */\n      tag_89\n        /* \"#utility.yul\":3784:3788   */\n      dup2\n        /* \"#utility.yul\":3658:3789   */\n      tag_47\n      jump\t// in\n    tag_89:\n        /* \"#utility.yul\":3650:3789   */\n      swap1\n      pop\n        /* \"#utility.yul\":3377:3796   */\n      swap2\n      swap1\n      pop\n      jump\t// out\n        /* \"#utility.yul\":3802:3982   */\n    tag_48:\n        /* \"#utility.yul\":3850:3927   */\n      0x4e487b7100000000000000000000000000000000000000000000000000000000\n        /* \"#utility.yul\":3847:3848   */\n      0x00\n        /* \"#utility.yul\":3840:3928   */\n      mstore\n        /* \"#utility.yul\":3947:3951   */\n      0x11\n        /* \"#utility.yul\":3944:3945   */\n      0x04\n        /* \"#utility.yul\":3937:3952   */\n      mstore\n        /* \"#utility.yul\":3971:3975   */\n      0x24\n        /* \"#utility.yul\":3968:3969   */\n      0x00\n        /* \"#utility.yul\":3961:3976   */\n      revert\n        /* \"#utility.yul\":3988:4182   */\n    tag_31:\n        /* \"#utility.yul\":4028:4032   */\n      0x00\n        /* \"#utility.yul\":4048:4068   */\n      tag_92\n        /* \"#utility.yul\":4066:4067   */\n      dup3\n        /* \"#utility.yul\":4048:4068   */\n      tag_38\n      jump\t// in\n    tag_92:\n        /* \"#utility.yul\":4043:4068   */\n      swap2\n      pop\n        /* \"#utility.yul\":4082:4102   */\n      tag_93\n        /* \"#utility.yul\":4100:4101   */\n      dup4\n        /* \"#utility.yul\":4082:4102   */\n      tag_38\n      jump\t// in\n    tag_93:\n        /* \"#utility.yul\":4077:4102   */\n      swap3\n      pop\n        /* \"#utility.yul\":4126:4127   */\n      dup3\n        /* \"#utility.yul\":4123:4124   */\n      dup3\n        /* \"#utility.yul\":4119:4128   */\n      sub\n        /* \"#utility.yul\":4111:4128   */\n      swap1\n      pop\n        /* \"#utility.yul\":4150:4151   */\n      dup2\n        /* \"#utility.yul\":4144:4148   */\n      dup2\n        /* \"#utility.yul\":4141:4152   */\n      gt\n        /* \"#utility.yul\":4138:4175   */\n      iszero\n      tag_94\n      jumpi\n        /* \"#utility.yul\":4155:4173   */\n      tag_95\n      tag_48\n      jump\t// in\n    tag_95:\n        /* \"#utility.yul\":4138:4175   */\n    tag_94:\n        /* \"#utility.yul\":3988:4182   */\n      swap3\n      swap2\n      pop\n      pop\n      jump\t// out\n\n    auxdata: 0xa26469706673582212200fd50b5336ceebf4daf98ff508f1cbe53077e336f32f6e7f416df54f1752bcf164736f6c63430008130033\n}\n",
				"bytecode": {
					"linkReferences": {},
					"object": "608060405234801561001057600080fd5b50610408806100206000396000f3fe608060405234801561001057600080fd5b50600436106100415760003560e01c80630602c36a146100465780636a2757db146100765780639aef81fe146100a6575b600080fd5b610060600480360381019061005b91906101c5565b6100d6565b60405161006d919061020d565b60405180910390f35b610090600480360381019061008b9190610228565b6100ef565b60405161009d9190610277565b60405180910390f35b6100c060048036038101906100bb91906101c5565b610172565b6040516100cd919061020d565b60405180910390f35b6000806002836100e691906102c1565b14159050919050565b6000808211801561010257506101008211155b610141576040517f08c379a00000000000000000000000000000000000000000000000000000000081526004016101389061034f565b60405180910390fd5b60006001836001901b610154919061039e565b90508083610100610165919061039e565b85901c1691505092915050565b60008060028361018291906102c1565b149050919050565b600080fd5b6000819050919050565b6101a28161018f565b81146101ad57600080fd5b50565b6000813590506101bf81610199565b92915050565b6000602082840312156101db576101da61018a565b5b60006101e9848285016101b0565b91505092915050565b60008115159050919050565b610207816101f2565b82525050565b600060208201905061022260008301846101fe565b92915050565b6000806040838503121561023f5761023e61018a565b5b600061024d858286016101b0565b925050602061025e858286016101b0565b9150509250929050565b6102718161018f565b82525050565b600060208201905061028c6000830184610268565b92915050565b7f4e487b7100000000000000000000000000000000000000000000000000000000600052601260045260246000fd5b60006102cc8261018f565b91506102d78361018f565b9250826102e7576102e6610292565b5b828206905092915050565b600082825260208201905092915050565b7f496e76616c6964206e756d626572206f66206269747300000000000000000000600082015250565b60006103396016836102f2565b915061034482610303565b602082019050919050565b600060208201905081810360008301526103688161032c565b9050919050565b7f4e487b7100000000000000000000000000000000000000000000000000000000600052601160045260246000fd5b60006103a98261018f565b91506103b48361018f565b92508282039050818111156103cc576103cb61036f565b5b9291505056fea26469706673582212200fd50b5336ceebf4daf98ff508f1cbe53077e336f32f6e7f416df54f1752bcf164736f6c63430008130033",
					"opcodes": "PUSH1 0x80 PUSH1 0x40 MSTORE CALLVALUE DUP1 ISZERO PUSH2 0x10 JUMPI PUSH1 0x0 DUP1 REVERT JUMPDEST POP PUSH2 0x408 DUP1 PUSH2 0x20 PUSH1 0x0 CODECOPY PUSH1 0x0 RETURN INVALID PUSH1 0x80 PUSH1 0x40 MSTORE CALLVALUE DUP1 ISZERO PUSH2 0x10 JUMPI PUSH1 0x0 DUP1 REVERT JUMPDEST POP PUSH1 0x4 CALLDATASIZE LT PUSH2 0x41 JUMPI PUSH1 0x0 CALLDATALOAD PUSH1 0xE0 SHR DUP1 PUSH4 0x602C36A EQ PUSH2 0x46 JUMPI DUP1 PUSH4 0x6A2757DB EQ PUSH2 0x76 JUMPI DUP1 PUSH4 0x9AEF81FE EQ PUSH2 0xA6 JUMPI JUMPDEST PUSH1 0x0 DUP1 REVERT JUMPDEST PUSH2 0x60 PUSH1 0x4 DUP1 CALLDATASIZE SUB DUP2 ADD SWAP1 PUSH2 0x5B SWAP2 SWAP1 PUSH2 0x1C5 JUMP JUMPDEST PUSH2 0xD6 JUMP JUMPDEST PUSH1 0x40 MLOAD PUSH2 0x6D SWAP2 SWAP1 PUSH2 0x20D JUMP JUMPDEST PUSH1 0x40 MLOAD DUP1 SWAP2 SUB SWAP1 RETURN JUMPDEST PUSH2 0x90 PUSH1 0x4 DUP1 CALLDATASIZE SUB DUP2 ADD SWAP1 PUSH2 0x8B SWAP2 SWAP1 PUSH2 0x228 JUMP JUMPDEST PUSH2 0xEF JUMP JUMPDEST PUSH1 0x40 MLOAD PUSH2 0x9D SWAP2 SWAP1 PUSH2 0x277 JUMP JUMPDEST PUSH1 0x40 MLOAD DUP1 SWAP2 SUB SWAP1 RETURN JUMPDEST PUSH2 0xC0 PUSH1 0x4 DUP1 CALLDATASIZE SUB DUP2 ADD SWAP1 PUSH2 0xBB SWAP2 SWAP1 PUSH2 0x1C5 JUMP JUMPDEST PUSH2 0x172 JUMP JUMPDEST PUSH1 0x40 MLOAD PUSH2 0xCD SWAP2 SWAP1 PUSH2 0x20D JUMP JUMPDEST PUSH1 0x40 MLOAD DUP1 SWAP2 SUB SWAP1 RETURN JUMPDEST PUSH1 0x0 DUP1 PUSH1 0x2 DUP4 PUSH2 0xE6 SWAP2 SWAP1 PUSH2 0x2C1 JUMP JUMPDEST EQ ISZERO SWAP1 POP SWAP2 SWAP1 POP JUMP JUMPDEST PUSH1 0x0 DUP1 DUP3 GT DUP1 ISZERO PUSH2 0x102 JUMPI POP PUSH2 0x100 DUP3 GT ISZERO JUMPDEST PUSH2 0x141 JUMPI PUSH1 0x40 MLOAD PUSH32 0x8C379A000000000000000000000000000000000000000000000000000000000 DUP2 MSTORE PUSH1 0x4 ADD PUSH2 0x138 SWAP1 PUSH2 0x34F JUMP JUMPDEST PUSH1 0x40 MLOAD DUP1 SWAP2 SUB SWAP1 REVERT JUMPDEST PUSH1 0x0 PUSH1 0x1 DUP4 PUSH1 0x1 SWAP1 SHL PUSH2 0x154 SWAP2 SWAP1 PUSH2 0x39E JUMP JUMPDEST SWAP1 POP DUP1 DUP4 PUSH2 0x100 PUSH2 0x165 SWAP2 SWAP1 PUSH2 0x39E JUMP JUMPDEST DUP6 SWAP1 SHR AND SWAP2 POP POP SWAP3 SWAP2 POP POP JUMP JUMPDEST PUSH1 0x0 DUP1 PUSH1 0x2 DUP4 PUSH2 0x182 SWAP2 SWAP1 PUSH2 0x2C1 JUMP JUMPDEST EQ SWAP1 POP SWAP2 SWAP1 POP JUMP JUMPDEST PUSH1 0x0 DUP1 REVERT JUMPDEST PUSH1 0x0 DUP2 SWAP1 POP SWAP2 SWAP1 POP JUMP JUMPDEST PUSH2 0x1A2 DUP2 PUSH2 0x18F JUMP JUMPDEST DUP2 EQ PUSH2 0x1AD JUMPI PUSH1 0x0 DUP1 REVERT JUMPDEST POP JUMP JUMPDEST PUSH1 0x0 DUP2 CALLDATALOAD SWAP1 POP PUSH2 0x1BF DUP2 PUSH2 0x199 JUMP JUMPDEST SWAP3 SWAP2 POP POP JUMP JUMPDEST PUSH1 0x0 PUSH1 0x20 DUP3 DUP5 SUB SLT ISZERO PUSH2 0x1DB JUMPI PUSH2 0x1DA PUSH2 0x18A JUMP JUMPDEST JUMPDEST PUSH1 0x0 PUSH2 0x1E9 DUP5 DUP3 DUP6 ADD PUSH2 0x1B0 JUMP JUMPDEST SWAP2 POP POP SWAP3 SWAP2 POP POP JUMP JUMPDEST PUSH1 0x0 DUP2 ISZERO ISZERO SWAP1 POP SWAP2 SWAP1 POP JUMP JUMPDEST PUSH2 0x207 DUP2 PUSH2 0x1F2 JUMP JUMPDEST DUP3 MSTORE POP POP JUMP JUMPDEST PUSH1 0x0 PUSH1 0x20 DUP3 ADD SWAP1 POP PUSH2 0x222 PUSH1 0x0 DUP4 ADD DUP5 PUSH2 0x1FE JUMP JUMPDEST SWAP3 SWAP2 POP POP JUMP JUMPDEST PUSH1 0x0 DUP1 PUSH1 0x40 DUP4 DUP6 SUB SLT ISZERO PUSH2 0x23F JUMPI PUSH2 0x23E PUSH2 0x18A JUMP JUMPDEST JUMPDEST PUSH1 0x0 PUSH2 0x24D DUP6 DUP3 DUP7 ADD PUSH2 0x1B0 JUMP JUMPDEST SWAP3 POP POP PUSH1 0x20 PUSH2 0x25E DUP6 DUP3 DUP7 ADD PUSH2 0x1B0 JUMP JUMPDEST SWAP2 POP POP SWAP3 POP SWAP3 SWAP1 POP JUMP JUMPDEST PUSH2 0x271 DUP2 PUSH2 0x18F JUMP JUMPDEST DUP3 MSTORE POP POP JUMP JUMPDEST PUSH1 0x0 PUSH1 0x20 DUP3 ADD SWAP1 POP PUSH2 0x28C PUSH1 0x0 DUP4 ADD DUP5 PUSH2 0x268 JUMP JUMPDEST SWAP3 SWAP2 POP POP JUMP JUMPDEST PUSH32 0x4E487B7100000000000000000000000000000000000000000000000000000000 PUSH1 0x0 MSTORE PUSH1 0x12 PUSH1 0x4 MSTORE PUSH1 0x24 PUSH1 0x0 REVERT JUMPDEST PUSH1 0x0 PUSH2 0x2CC DUP3 PUSH2 0x18F JUMP JUMPDEST SWAP2 POP PUSH2 0x2D7 DUP4 PUSH2 0x18F JUMP JUMPDEST SWAP3 POP DUP3 PUSH2 0x2E7 JUMPI PUSH2 0x2E6 PUSH2 0x292 JUMP JUMPDEST JUMPDEST DUP3 DUP3 MOD SWAP1 POP SWAP3 SWAP2 POP POP JUMP JUMPDEST PUSH1 0x0 DUP3 DUP3 MSTORE PUSH1 0x20 DUP3 ADD SWAP1 POP SWAP3 SWAP2 POP POP JUMP JUMPDEST PUSH32 0x496E76616C6964206E756D626572206F66206269747300000000000000000000 PUSH1 0x0 DUP3 ADD MSTORE POP JUMP JUMPDEST PUSH1 0x0 PUSH2 0x339 PUSH1 0x16 DUP4 PUSH2 0x2F2 JUMP JUMPDEST SWAP2 POP PUSH2 0x344 DUP3 PUSH2 0x303 JUMP JUMPDEST PUSH1 0x20 DUP3 ADD SWAP1 POP SWAP2 SWAP1 POP JUMP JUMPDEST PUSH1 0x0 PUSH1 0x20 DUP3 ADD SWAP1 POP DUP2 DUP2 SUB PUSH1 0x0 DUP4 ADD MSTORE PUSH2 0x368 DUP2 PUSH2 0x32C JUMP JUMPDEST SWAP1 POP SWAP2 SWAP1 POP JUMP JUMPDEST PUSH32 0x4E487B7100000000000000000000000000000000000000000000000000000000 PUSH1 0x0 MSTORE PUSH1 0x11 PUSH1 0x4 MSTORE PUSH1 0x24 PUSH1 0x0 REVERT JUMPDEST PUSH1 0x0 PUSH2 0x3A9 DUP3 PUSH2 0x18F JUMP JUMPDEST SWAP2 POP PUSH2 0x3B4 DUP4 PUSH2 0x18F JUMP JUMPDEST SWAP3 POP DUP3 DUP3 SUB SWAP1 POP DUP2 DUP2 GT ISZERO PUSH2 0x3CC JUMPI PUSH2 0x3CB PUSH2 0x36F JUMP JUMPDEST JUMPDEST SWAP3 SWAP2 POP POP JUMP INVALID LOG2 PUSH5 0x6970667358 0x22 SLT KECCAK256 0xF 0xD5 SIGNEXTEND MSTORE8 CALLDATASIZE 0xCE 0xEB DELEGATECALL 0xDA 0xF9 DUP16 CREATE2 ADDMOD CALL 0xCB 0xE5 ADDRESS PUSH24 0xE336F32F6E7F416DF54F1752BCF164736F6C634300081300 CALLER "
				},
				"gasEstimates": {
					"creation": {
						"codeDepositCost": "206400",
						"executionCost": "251",
						"totalCost": "206651"
					},
					"external": {
						"even(uint256)": "infinite",
						"getMostSignificantBits(uint256,uint256)": "infinite",
						"odd(uint256)": "infinite"
					}
				},
				"methodIdentifiers": {
					"even(uint256)": "9aef81fe",
					"getMostSignificantBits(uint256,uint256)": "6a2757db",
					"odd(uint256)": "0602c36a"
				}
			},
			"storageLayout": {
				"storage": [],
				"types": null
			},
			"userdoc": {
				"kind": "user",
				"methods": {},
				"version": 1
			}
		}
	}
}